:020000040800F2
:2000000098200020F51500081116000815160008191600081D1600082116000800000000E3
:200020000000000000000000000000002516000829160008000000002D160008311500089D
:200040003116000835160008391600083D1600084116000845160008491600084D160008B8
:200060005116000855160008591600085D1600086116000865160008691600086D16000898
:200080007116000875160008791600087D1600088116000885160008891600088D16000878
:2000A0009116000895160008991600089D160008FD140008A1160008A5160008A91600080A
:2000C000AD160008B1160008B5160008B9160008BD160008C1160008C5160008C916000858
:2000E000CD160008D1160008D5160008D9160008DD160008E1160008E5160008E916000838
:20010000ED160008F1160008F5160008F9160008FD16000801170008051700080917000814
:200120000D1700081117000815170008191700081D170008211700082517000829170008EF
:200140002D1700083117000835170008391700083D170008411700084517000849170008CF
:200160004D1700085117000855170008591700085D17000861170008651700080000000037
:20018000691700086D17000810B5040001D1012010BD94F8390010B9204600F08AFB0AE06F
:2001A0000068C16841F00101C160016841F00101016000207047022084F83900211D2068E9
:2001C00000F0BBF9012084F83900002010BD03D1416C41F400414164016841F0010101601F
:2001E000002010BD10B5040001D1012010BD94F8390010B9204600F001F8DCE7704710B56D
:2002000000F007F800F00AF81CBFDFF81C108842DDE704460122206800F000BA2068DFF893
:200220002C128842704700000004014010B5044620680169890716D5C168890713D56FF03E
:200240000201016101212176806910F0030F204602D000F06FF904E000F06BF9204600F067
:200260006AF90020207620680169490716D5C168490713D56FF0040101610221217680696E
:2002800010F4407F204602D000F054F904E000F050F9204600F04FF90020207620680169C3
:2002A000090716D5C168090713D56FF00801016104212176C06910F0030F204602D000F039
:2002C00039F904E000F035F9204600F034F90020207620680169C90616D5C168C90613D525
:2002E0006FF01001016108212176C06910F4407F204602D000F01EF904E000F01AF92046F4
:2003000000F019F90020207620680169C90708D5C168C90705D56FF001010161204600F09A
:2003200007F920680169090608D5C168090605D56FF080010161204600F040FB2068016908
:20034000490608D5C168490605D56FF040010161204600F0F1F82068016989060AD5C16855
:20036000890607D56FF0200101612046BDE8104000F023BB10BD38B500F05BF801D1022016
:2003800032BD00F065F832B1042A14D0082A24D00C2A32D042E0206800F04CF9206881697D
:2003A00041F0080100F041F821F0040100F03DF82A6911430FE0206800F007F920688169DF
:2003C00041F4006100F031F821F4806100F02DF82A6941EA0221816120E0206800F055F9DA
:2003E0002068C16941F0080100F01BF821F0040100F017F82A6911430FE0206800F073F93F
:200400002068C16941F4006100F00BF821F4806100F007F82A6941EA0221C16100F00FF8C2
:2004200032BDC1612068C1697047816120688169704704460D4694F83800012870470120D5
:2004400084F83900002084F83800704700000140012084F83800022084F83900704710B5F3
:2004600000F05AF801D1022010BDFFF7F1FFDFF8BC32206882681A4082600868002837D081
:20048000102837D0202837D0302837D040282BD050281ED0602820D070280BD0B0F5805F37
:2004A00003D0B0F5005F0CD02CE020688168C908C9000CE000F02BF82068816841F0770159
:2004C00005E000F024F82068816841F48041816018E000F018F8502111E0CA68496820681E
:2004E00000F04DF960210AE000F00DF8402106E0002104E0102102E0202100E0302120680D
:2005000000F04FF90DE0CA684968206826E1CB684A68896820684CE1044694F83800012882
:200520007047012084F83900002084F8380010BD70477047704770477047F0B57C4B046822
:200540007C4A7D4D7D4E7E4F984218BFB0F1804F07D0B84218BFB04203D0A84218BF904252
:200560000FD1D1F804C0984224F0700418BFB0F1804F4CEA040417D0B8421CBFB042A8428F
:2005800012D090421CBF6F4DA8420DD06E4DA8421CBF6E4DA84207D06D4DA8421FBF6D4D11
:2005A000A8426D4DA84203D1CD6824F440742C43046098428C68C4620C68846212BF904214
:2005C0000969016301214161F0BD70B5026A22F0100200F054F823F4E64343EA05238D6859
:2005E00024F0200444EA051400F07AF81CBF514DA8420DD1CD688E6924F0800444EA0514CE
:200600004D6922F44062354324F0400442EA85024260836149688163046270BD10B5036A09
:2006200001248C40A343036202FA01F1036A1943016210BD30B5026A5208520000F01FF893
:2006400023F073032B438D6824F002042C4300F047F81CBF374DA8420BD1CD6824F008047C
:200660002C434D6922F440722A438D6924F004042A434260836149684163046230BD02620F
:20068000046A426883690D68704770B5026A22F480720262046A4268C3690D6823F07303EB
:2006A0002B438D6824F4007444EA052400F018F81CBF204DA8420DD1CD688E6924F400643C
:2006C00044EA05244D6922F44052354324F4806442EA05124260C3614968C163046270BD80
:2006E000134DA842704730B5026A22F480520262026A4368C4690D6824F4E64444EA05240A
:200700008D6822F4005242EA0532FFF7E9FF1CBF084DA84204D14D6923F4804343EA8513F7
:200720004360C46149680164026230BD8800FFFF0000014000040140000C004000080040EA
:200740000004004000400140004401400048014000180040001C00400020004010B5036A80
:20076000046A640864000462846924F0F00444EA0212826123F00A021143016210BD10B553
:20078000036A23F0100303628369046A23F4704343EA0232826124F0A00242EA01110162A2
:2007A00010BD826822F07002114341F007018160704710B5846824F47F442143114341EA6A
:2007C0000321816010BD10B450F8041B81B102681218001D50F8043BDC0744BFA9F101042D
:2007E000E31852F8044B43F8044B091FF9D1EBE710BC704710B5444C4448206094B00020CF
:200800006060A0604FF48070E0600020206160612046FFF7B9FC4FF48050109010A9204660
:20082000FFF71DFE2046FFF7DDFC00F03BF8002009900A900B900C900D9009A94FF40050E3
:200840000E9000200F90204600F093F8602002900022002003900490059006900790089085
:2008600002A92046FFF787FD14B010BD10B5284C4FF08040206086B000206060A06040F658
:20088000C410E060002020612046FFF77DFC4FF48050029002A92046FFF7E1FD00F002F85A
:2008A00006B010BD00200090019000A9204600F03BB800B585B00068144A1649904212D1BE
:2008C000486840F00100486000A94FF40070009002200190002002900390012004900E48A0
:2008E00000F07EF80EE0B0F1804F0BD1086840F001000860002200211C2000F074F91C2037
:2009000000F093F905B000BD1800002000000140540000204038024000100240D960002196
:2009200080F83810002010BD10B590F83820012A01D1022010BD012280F83820022280F8EA
:2009400039200268536823F070035360026853680C68234353600268936823F08003936040
:2009600002689368496819439160012180F83910D5E790F83820012A01D10220704701229C
:2009800080F83820022280F839204B680A681A438B681A43CB681A430B691A434B698969B9
:2009A0001A43114302685164FFE7012180F83910002180F83810002070477047704750F830
:2009C000041B61B150F8042BD30744BFA9F101039A180023091F42F8043BFAD1EFE7704726
:2009E0002DE9F0470022644BDFF89081DFF890914FF00F0A012707FA02FC0F680CEA0707FF
:200A0000674540F0B2804C68022C18BF122C10D1D40800EB840E02F00704DEF82050A400B0
:200A20000AFA04F6B5430E6906FA04F42C43CEF820404FEA420E05680E79032404FA0EF418
:200A4000E44306F00306254006FA0EF6354305604D68012D18BF022D03D0112D18BF122D1A
:200A60000FD18568CE68254006FA0EF635438560456825EA0C064D68C5F300159540354310
:200A80004560C56825408C6804FA0EF42C43C4604C68E40069D5D9F8004044F48044C9F8F4
:200AA00000404FEA920C02F0030558F82C40AE000AFA06F5AC43334DA84208BF002527D080
:200AC000314DA84208BF012522D0304DA84208BF02251DD02E4DA84208BF032518D02D4DD7
:200AE000A84208BF042513D02B4DA84208BF05250ED02A4DA84208BF062509D0284DA8427D
:200B000008BF072504D0274DA8420CBF08250925B5402C4348F82C40FD431C6805EA040EB5
:200B20004C68E40348BF47EA0E0EC3F800E05C6805EA040E4C68A40348BF47EA0E0EC3F8FC
:200B400004E09C6805EA040E4C68E40248BF47EA0E0EC3F808E0DC6805EA040C4C68A4027E
:200B600048BF47EA0C0CC3F80CC0521C102AFFF441AFBDE8F0870000003C014008380140F9
:200B800044380240000002400004024000080240000C024000100240001402400018024075
:200BA000001C0240002002402F480068C0F3022070470901002806D52C4A00F00F008018F0
:200BC00000F8041C70472A4A8154704726490A684FF6FF031A4000F0070042EA0020254A12
:200BE00010430860704770B504460D461646FFF7DBFF00F007000121C0F10702052A2EBFA6
:200C00000F2201FA02F2521E031D072B34BF0020C01E2A40824001FA00F0401E304040EAF2
:200C200002012046BDE87040C3E7012100F01F029140114AFFE7400942F82010704710B5D8
:200C4000401EB0F1807F01D3012010BD0B4C60600F214FF0FF30FFF7ACFF0020A060072037
:200C60002060002010BD00000CED00E018ED00E000E400E00000FA0500E100E010E000E0F5
:200C800080B500F001F801BD704700002DE9F047044641F289382078DFF8BC54C0073BD5E0
:200CA000A86800F00C00042805D000F02AF909D16868400206D5286880032DD5606858BB5D
:200CC000012018E10020A87000F097FA06462868800305D500F091FA801B4045F7D307E1BB
:200CE0006068A870606858B100F087FA06462868800311D400F081FA801B4045F7D3F7E062
:200D000000F07BFA06462868800305D500F075FA801B4045F7D3EBE02078DFF84064800787
:200D200016D5A86810F00C0F05D000F0EAF827D16868400224D42868800702D5E068012895
:200D4000BED12868216920F0F80040EAC10028602078DFF80C9400073DD56169DFF804049E
:200D600059B30121016000F048FA0746D9F80400800730D400F041FAC01B6528F6D3B7E012
:200D8000E06868B10120306000F037FA074628688007D6D400F031FAC01B6528F7D3A7E03E
:200DA000306000F02AFA074628688007D0D500F024FAC01B6528F7D39AE0016000F01DFA64
:200DC0000746D9F80400800705D500F016FAC01B6528F6D38CE02078400748D5286CDFF88C
:200DE00088A340F080502864DAF8000040F48070CAF8000000F001FA0746DAF80000C005B5
:200E000005D400F0FAF9C01B6528F6D370E0002089F8000000F0F1F90746D9F80000800775
:200E200005D500F0EAF9C01B4045F6D360E0A06889F80000A06801280CD100F0DEF90746F1
:200E4000D9F80000800712D400F0D7F9C01B4045F6D34DE000F0D1F90746D9F800008007DF
:200E600005D500F0CAF9C01B4045F6D340E0A06900283FD0A96801F00C0108293FF420AF1A
:200E800002282AD100F039F807462868800105D500F0B3F9C01B6528F7D329E0206A616AA8
:200EA00040EA8110A16A891EC903090C40EA0140E1690843E16A40EA016040F000506860C6
:200EC000012000F01BF804462868800112D400F094F9001B6528F7D30AE000F00EF8044694
:200EE0002868800106D500F088F9001B6528F7D3032000E00020BDE8F0870020306600F03E
:200F00007CB9A86800F00C00082870472DE9F843DFF85852DFF84062044628680F4600F03F
:200F20000F00B84241F289383AD200F093F876D100F09DF875D56068012802D1316889032E
:200F400003E00228316802D1890102D467E0890765D500F085F80746606801280AD1B06809
:200F600000F00C0004285CD000F047F9C01B4045F5D34FE0022809D1B068FFF7C3FF50D0A2
:200F800000F03BF9C01B4045F6D343E0B06810F00C0F46D000F031F9C01B4045F6D339E03C
:200FA00000F065F838D56068012802D13168890303E00228316802D1890102D42FE0890776
:200FC0002DD500F04DF88146606801280BD1B06800F00C0004281FD000F00FF9A0EB09008B
:200FE0004045F4D316E002280AD1B068FFF78AFF12D000F002F9A0EB09004045F5D309E07C
:20100000B06810F00C0F07D000F0F7F8A0EB09004045F5D303201BE000F01CF801D00120F2
:2010200016E02078400705D5B068E16820F4E0500843B0602078000706D5B068216920F4D1
:20104000604040EAC100B060002000F0BFF80020BDE8F2832F70286800F00F00B842704715
:20106000B168890840EA8100B06000F0C6B82078800705D5B068A16820F0F0000843B06028
:201080002078C007704770B5394E86B00028B06A0C46154610D140F00100B06200A94FF459
:2010A000807000F01DF83348FFF79AFC306820F0EC602043284310E040F00400B06200A993
:2010C0004FF4007000F00CF82B48FFF789FC3068400154EA501040EAC500306006B070BDA2
:2010E0000090022001900320039000200290049070472248416801F00C01042902D00829B9
:2011000002D017E01E48704701680268520201F03F014CBF1A4A1B4AB2FBF1F1026800685C
:20112000C0F30140C2F38812401C51434000B1FBF0F070471348704780B5FFF7DAFF0C4B8C
:201140000FF248021B681049C3F303139A5CD0400860086802BD00000038024000004742FC
:2011600070380240800E474200700040003C024008380240000002400008024004380240B4
:2011800000127A000024F400100000200000000001020304010203040607080980B51E48AE
:2011A000016841F400710160016841F480610160016841F4807101600320FFF707FD0020B2
:2011C00000F004F800F02CF8002002BD10B50446FFF7B2FF4FF47A71B0FBF1F0FFF72FFD9E
:2011E000002221464FF0FF30FFF7FDFC002010BD0A480168491C0160704708480068704775
:2012000011B581B0FFF7F9FF0446FFF7F6FF0199001B8842F9D313BD003C0240900000206B
:2012200080B50720FFF7D2FCBDE80840002200214FF0FF30FFF7D7BC2DE9F0435148524CE7
:2012400085B0016841F010010160016841F004010160016841F080010160016841F0010135
:201260000160016841F002010160016841F0080101600820009000A900F096F82046FFF7D0
:20128000AFFB01200090019000200290039000A93E4D2846FFF7A4FB082000F0A2F82846C6
:2012A000FFF79EFB0120009000200290384E394F019600A900F075F8102000F088F800F001
:2012C00070F8E02000F08DF800F06BF80420009000200190029000A9DFF8BC804046FFF7AF
:2012E0007FFB4FF4806000F07CF84046FFF778FB4FF21000009000F057F800A9DFF89C9032
:201300004846FFF76DFB4FF4A45000F060F82846FFF766FB4FF4807000F052F8032003907A
:20132000002000F03DF84FF4007000F043F800F038F84FF4E05000F043F803900A2000F01F
:201340002FF8202000F036F84846FFF749FB4FF41070009000A912200190012002900020AE
:201360000390042004904046FFF73AFB0220009001960020029000A92046FFF731FB05B090
:20138000BDE8F083303802400010024000080240000012100000024000040240000C0240F7
:2013A00004903846FFF71CBB012001900020029003907047009000A900200190029070476D
:2013C000009000A902200190002002907047009000A90220019000200290039006200490CD
:2013E0007047009000A902200190002002900390052004907047000080B5FFF7CFFE00F0AD
:2014000014F8FFF719FFFFF7F5F9FFF72FFA0220FFF7DCFE00212148FEF7F1FE2048FEF7F2
:20142000BFFE0320FFF7ECFEFBE700B51D4891B0016841F0805101601B48016821F4404181
:2014400041F40041016001200590069002200B904FF480000C9004200D90C8200E900420E2
:201460000F900720109005A8FFF710FC0D200090032102200190002002904FF4A05003904B
:201480004FF48050049000A8FFF740FD00224FF4C0010020FFF7F7FD11B000BD18000020E4
:2014A0005400002040380240007000400E480F4A016841F4700101600D48016841F001013E
:2014C00001600021816001681140016009494160016821F4802101600021C1604FF000603A
:2014E000054908607047000088ED00E0FFFFF6FE003802401030002408ED00E080B5074801
:20150000FEF794FE0648074B016811F8012B1A60054A914228BF0549016001BD54000020A2
:2015200014000020340001409F9105080050000880B5FFF75DFEBDE80140FFF7A1BB0000AF
:2015400010B5074979441831064C7C44163404E00A68081D511888470146A142F8D110BDA1
:201560002C0000004C0000004EF68851CEF20001086840F470000860BFF34F8FBFF36F8F59
:201580004FF00070E1EE100A7047000033F4FFFF7C00000018000020000000002BF2FFFF08
:2015A00018000000CC010000000000200000000000F00BF8002801D0FFF7C2FF0020C0465D
:2015C000C046FFF719FF00F002F80120704700F001B800000746384600F002F8FBE70000F5
:2015E00080B5C046C046024A11001820ABBEFBE7260002000148804701480047AD14000839
:2016000005160008C046C046FFF7AEFFFFF7D0FFFFF7FEBFFFF7FEBFFFF7FEBFFFF7FEBF67
:20162000FFF7FEBFFFF7FEBFFFF7FEBFFFF7FEBFFFF7FEBFFFF7FEBFFFF7FEBFFFF7FEBF12
:20164000FFF7FEBFFFF7FEBFFFF7FEBFFFF7FEBFFFF7FEBFFFF7FEBFFFF7FEBFFFF7FEBFF2
:20166000FFF7FEBFFFF7FEBFFFF7FEBFFFF7FEBFFFF7FEBFFFF7FEBFFFF7FEBFFFF7FEBFD2
:20168000FFF7FEBFFFF7FEBFFFF7FEBFFFF7FEBFFFF7FEBFFFF7FEBFFFF7FEBFFFF7FEBFB2
:2016A000FFF7FEBFFFF7FEBFFFF7FEBFFFF7FEBFFFF7FEBFFFF7FEBFFFF7FEBFFFF7FEBF92
:2016C000FFF7FEBFFFF7FEBFFFF7FEBFFFF7FEBFFFF7FEBFFFF7FEBFFFF7FEBFFFF7FEBF72
:2016E000FFF7FEBFFFF7FEBFFFF7FEBFFFF7FEBFFFF7FEBFFFF7FEBFFFF7FEBFFFF7FEBF52
:20170000FFF7FEBFFFF7FEBFFFF7FEBFFFF7FEBFFFF7FEBFFFF7FEBFFFF7FEBFFFF7FEBF31
:20172000FFF7FEBFFFF7FEBFFFF7FEBFFFF7FEBFFFF7FEBFFFF7FEBFFFF7FEBFFFF7FEBF11
:20174000FFF7FEBFFFF7FEBFFFF7FEBFFFF7FEBFFFF7FEBFFFF7FEBFFFF7FEBFFFF7FEBFF1
:20176000FFF7FEBFFFF7FEBFFFF7FEBFFFF7FEBF0000000000000000010203040607080975
:201780000024F40000500008FFFFFFFFFFFFFFFFFFFFFFFFFFFFFFFFFFFFFFFFFFFFFFFFF1
:2017A000FFFFFFFFFFFFFFFFFFFFFFFFFFFFFFFFFFFFFFFFFFFFFFFFFFFFFFFFFFFFFFFF49
:2017C000FFFFFFFFFFFFFFFFFFFFFFFFFFFFFFFFFFFFFFFFFFFFFFFFFFFFFFFFFFFFFFFF29
:2017E000FFFFFFFFFFFFFFFFFFFFFFFFFFFFFFFFFFFFFFFFFFFFFFFFFFFFFFFFFFFFFFFF09
:20180000FFFFFFFFFFFFFFFFFFFFFFFFFFFFFFFFFFFFFFFFFFFFFFFFFFFFFFFFFFFFFFFFE8
:020000040800F2
:20500000524946462C23010057415645666D7420100000000100010022560000225600007D
:20502000010008004C495354C0000000494E464F494152541C00000054657874416C6F75BD
:20504000643A2049564F4E41204A656E6E6966657232320049435244050000003230313670
:20506000000049474E52070000005370656563680000494C4E470B000000555320456E678A
:205080006C6973680000494E414D0D00000031313230333033302E6D703300004950524437
:2050A0001F000000437265617465643A20332F31312F323031362031303A35363A3232201F
:2050C000414D0000495346540E0000004C61766635372E32362E3130300049544348090083
:2050E00000004C616D65204D50330000646174614022010080808080808080808080808044
:20510000808080808080808080808080808080808080807F80808080808080808080808090
:2051200080808080808080808080808080808080808080808080808080808080808080806F
:2051400080808080808080808080808080808080808080808080808080808080808080804F
:2051600080808080808080808080808080808080808080808080808080808080808080802F
:2051800080808080808080808080808080808080808080808080808080808080808080800F
:2051A0008080808080808080808080808080808080808080808080808080808080808080EF
:2051C0008080808080808080808080808080808080808080808080808080808080808080CF
:2051E000807F808080808080808080808080808080808080808080808080808080808080B0
:2052000080807F80808080808080808080808080808080808080808080808080808080808F
:2052200080807F80808080808080808080808080808080808080808080808080808080806F
:20524000808080808080807F808080808080808080808080808080808080808080807F8050
:2052600080808080808080808080808080808080808080808080808080808080808080802E
:205280007F808080808080808080808080808080808080808080808080808080808080800F
:2052A000808080808080807F808080808080808080808080808080808080808080808080EF
:2052C0008080808080808080808080808080808080808080808080808080808080808080CE
:2052E00080808080807F8080808080808080808080808080808080808080808080808080AF
:2053000080808080807F80808080808080808080808080808080808080808080808080808E
:205320007F808080808080808080808080808080808080808080808080808080808080806E
:20534000808080808080808080808080807F8080808080808080808080807F80808080804F
:2053600080808080808080808080808080808080808080808080808080808080808080802D
:205380008080808080808080808080808080808080808080808080807F808080808080800E
:2053A000808080808080808080808080808080808080807F808080808080808080808080EE
:2053C0008080808080808080808080808080808080808080808080808080808080808080CD
:2053E000808080808080808080808080808080808080808080808080808080808080807FAE
:2054000080808080808080808080808080808080808080808080808080808080808080808C
:205420008080808080808080808080808080807F808080808080808080808080808080806D
:20544000808080808080808080808080807F80808080807F8080807F807F80808080808050
:20546000808080808080808080808080808080808080808080808080807F8080808080802D
:20548000807F8080808080808080808080808080808080808080807F807F80807F80808010
:2054A00080808080807F8080807F80808080808080808080808080807F80808080808080EF
:2054C0008080808080807F807F80808080807F808080808080807F7F8080808080807F80D2
:2054E000808080807F807F80808080808080807F808080808080807F808080807F807F80B2
:20550000807F7F808080808080808080808080807F8080808080808080808080807F80808F
:205520007F7F80808080808080808080808080808080807F8080808080807F80808080806F
:2055400080808080808080807F807F7F80808080807F80807F8080807F7F807F7F807F7F56
:205560007F7F807F7F8080807F7F807F7F7F7F7F7F7F7F7F7F7F807F7F7F807F7F807F7F43
:205580007F7F7F7F7F7F7F7F7F7F7F7F7F7F7F7F7F7F7F7F7F7F7F7F7F7F7F7F7F7F7F7F2B
:2055A0007F7F7F7F7F7F7F7F7F7F7F7F7F7F807F7F7F7F7F7F7F7F7F7F7F7F7F7F7F7F7F0A
:2055C0007F7F7F7F7F7F7F7F7F7F7F7F7F7F7F7F7F7F7F7F7F7F7F7F7F7F7F7F7F7F7F7FEB
:2055E0007F7F7F7F7F7F7F7F7F7F7F7F7F7F7F7F7F7F7F7F7F7F7F7F7F7F7F7F7F7F7F7FCB
:205600007F7F7F7F7F7F7F7F7F7F7F7F7F7F7F7F7F7F7F7F7F7F7F7F7F7F7F7F7F7F7F7FAA
:205620007F7F7F7F7F7F7F7F7F7F7F7F7F7F7F7F7F7F7F7F7F7F7F7F7F7F7F7F7F7F7F7F8A
:205640007F7F7F807F7F7F7F7F7F7F7F7F7F7F7F7F7F7F7F7F7F7F7F7F7F7F7F7F7F7F7F69
:205660007F7F7F7F7F7F7F7F7F7F7F7F7F7F7F7F7F7F7F7F7F7F7F7F7F7F7F7F7F7F7F7F4A
:205680007F7F7F7F7F7F7F7F7F7F7F7F7F7F7F7F7F7F7F7F7F7F7F7F7F7F7F7F7F7F7F7F2A
:2056A0007F7F7F7F7F7F7F7F7F7F7F7F7F7F7F7F7F7F7F807F7F7F7F7F7F7F7F7F7F7F7F09
:2056C0007F7F7F7F7F7F7F7F7F7F7F7F7F7F7F7F7F7F7F7F7F7F7F7F7F7F7F7F7F7F7F7FEA
:2056E0007F7F7F7F7F7F7F7F7F7F7F7F7F7F7F7F7F7F7F7F7F7F7F7F7F7F7F7F7F7F7F7FCA
:205700007F7F7F7F7F7F7F7F7F7F7F7F7F7F7F7F7F7F7F7F7F7F7F7F7F7F7F7F7F7F7F7FA9
:205720007F7F7F7F7F7F7F7F7F7F7F7F7F7F7F7F7F7F7F7F7F7F7F7F7F7F7F7F7F7F7F7F89
:205740007F7F7F7F7F7F7F7F7F7F7F7F7F7F7F7F7F7F7F7F7F7F7F7F7F7F7F7F7F7F7F7F69
:205760007F7F7F7F7F7F7F7F7F7F7F7F7F7F7F7F7F7F7F7F807F7F7F7F7F7F7F7F7F7F7F48
:205780007F7F7F7F7F7F7F7F7F7F7F7F7F7F7F7F7F7F7F7F7F7F7F7F7F7F7F7F7F7F7F7F29
:2057A0007F7F7F7F7F7F7F7F7F7F7F807F7F7F7F7F7F7F7F7F7F7F7F7F7F7F7F7F7F7F7F08
:2057C0007F7F7F7F7F7F7F7F7F7F7F7F7F7F7F7F7F7F7F7F7F7F7F7F7F7F7F7F7F7F7F7FE9
:2057E0007F7F7F7F7F7F7F7F7F7F7F7F7F7F7F7F7F7F7F7F7F7F7F7F7F80807F7F7F7F7FC7
:205800007F7F7F7F7F7F7F7F7F7F7F7F7F7F7F7F7F7F7F7F7F7F7F7F7F7F7F7F7F7F7F7FA8
:205820007F7F7F7F7F7F7F7F7F7F7F7F7F7F7F7F7F7F7F7F7F7F7F7F7F7F7F7F7F7F7F7F88
:205840007F7F7F7F7F7F7F7F7F7F7F7F7F7F7F7F7F7F7F7F7F7F7F7F7F7F7F7F7F7F7F7F68
:205860007F7F7F7F7F7F7F7F7F7F7F7F7F7F7F7F7F7F7F7F7F7F7F7F7F7F7F7F7F7F7F7F48
:205880007F7F7F7F807F7F7F7F7F7F7F7F7F7F7F7F7F7F7F7F7F7F7F7F7F7F7F7F7F7F7F27
:2058A0007F7F7F7F7F7F7F7F7F7F7F7F7F7F7F7F7F7F7F7F7F7F7F7F7F7F7F7F7F7F7F7F08
:2058C0007F7F7F7F7F7F7F7F7F7F7F7F7F7F7F7F7F7F7F7F7F7F7F7F7F7F7F7F7F7F7F7FE8
:2058E0007F7F7F7F7F7F7F7F7F7F7F7F7F7F7F7F7F7F7F7F7F7F7F7F7F7F7F7F7F7F7F7FC8
:205900007F807F7F80807F7F8080807F7F7F7F7F7F7F7F7F7F7F7F7F807F7F8080807F7F9D
:205920007F7F7F7F7F808080807F7F8080807F7F807F80807F7F7F7F7F7F7F7F7F80807F7B
:20594000808080808080807F7F8080807F7F7F7F7F7F7F7F7F7F7F7F7F7F80807F7F7F7F5B
:205960008080807F7F8080807F7F7F7F7F80807F807F7F7F7F7F7F7F7F7F7F7F808080803A
:2059800080808080808080807F7F8080807F7F7F7F80808080808080808080808080807F0E
:2059A0007F8080807F7F80808080807F7F8080807F7F7F7F7F80807F7F7F7F7F7F7F7F7EFB
:2059C0007E7F7F7F8080807F7F7F7F7F7F7F7F7F7F7F7F7F7F7F7F7F7F7F7F7F7F7F7F7FE5
:2059E0007F8080807F7F8080807F7F808080807F7F7F7F807F7F80808080807F7F808080B4
:205A00007F7F808080808080808080808080808080807F7F7E7E7E7F7F808080807F7F7F95
:205A20008081818181818180808182817F7D7F8181807E7E7E7F81827F7A79797A7B7D7F87
:205A4000807F80828484838382828384848281807E7C7B7C7D7D7D7F80828282828182842F
:205A60008788898A8A89868686868482828282807E7D7B79787778797A7A7A797978797934
:205A80007878787876757678797978757475787A7A7A7A7B7B7B7D7F8182838382828486A1
:205AA00087878686868687878685848483828283848586868788888787898988888A8A8B1A
:205AC0008A89878483848483838483817E7F8181807F8081807F7F808080808080807F7F94
:205AE000808181828181818180838A8F8D8172696E7B8891969895918E8E8A82766E6A6A63
:205B00006C6C65594C44444951595E62666B737B80807E80858C9192918E8A878887858231
:205B2000808281818284838081858B8C8D8D8E8F92989B99938D8E929695918A857F7B7829
:205B40007879797A7A7B7A7A7A7C7E818386888887878B8E8E88817C7C7E8081817E797548
:205B60007472706D6D707275797D7D7B7877797C80838586888B8D8C88837F7E7F81838582
:205B8000858482807F7D7A78787A7E8286878785848485878A8D8F9091918E887F756D67B7
:205BA000635F5C5955514B4847484B50575F6770777C7E7F7F80818385868683807C777391
:205BC0006F6B6A6D7175797D818385878A9095999C9D9F9F9E9C999794949595938E8A847E
:205BE0007F7B7C8387888485898F93959796948F8A88868585848687878683807D7B7A7CD3
:205C00007F818384848281807F7F7E808286898A8C8A87838181818282828587868382821D
:205C2000807F7F87929792867D78787B818D959A9896928A81777068626061615C534C4917
:205C40004847484E555B60646C71767A7F838485878886827F7C7B79787777747272737428
:205C6000777C8085898D8E9195979A9C9E9D9B98969693928F8C8B8A88858080848B909367
:205C800094918E8A888989898A8D91908E8C8B878381817E7D7E818382807E7C7A7A7C7E54
:205CA00081838587858583827E7B7B7C7F7F808082818081818382888F95958C82757071A8
:205CC0007A87909694908C87827A7268615D5D5E5E5B544C4544464A525961686E74777860
:205CE0007776767A7E82858483817E7A757170737677787A7E808285898E919497999C9E6F
:205D00009F9D9A9794928F919495908986888E9192908C88898D91918E8D8B8A898D8F8E90
:205D20008C8B8C8A8682807E7D7D7E7F82848585828180807F7E7F80838484817E7C7B7831
:205D4000787A808583817D7D7C7E81848D8F8B7C6E6C74828A8F90908E898079746E675D6D
:205D60005A595A58534E4948484C50555A616970777B7D7E7E7F8185878683817F7C7774D8
:205D800073757677797C7E80818284868C9094979A9D9D9D9B9A97949494959593918C858F
:205DA0008384868687888A8C8B8A878585878A8B8E8F918F8E8C8A89858281838486898AD7
:205DC00089858382828282848484838688847E7B7E8182838685827E7F8284888A8C898352
:205DE0007C7572757E878E908F8E8A857B716762605E5B5A58554F4B4B4C4D4E535B636961
:205E00006E74787A7A7B7F80818080807F7F7E7D787575747475797E7F8283888D909294BB
:205E20009A9DA0A2A19E9A969494918F90918F867D7B7F84848483848483868787848484CB
:205E40008587898A87848385888786848384858686898B8C8A8886858483848382817F7F93
:205E60007E7F82868886868585848386888A8C8C84776D6F79848A8C8B8885817C756B6405
:205E80005F5C5A5957554F49494B4E4F535960666D757A7B7A7B7D7F818384858482807BD7
:205EA000767476777575787C7E7F8184878A8E92969A9C9EA09F9E9C9A97928F9297958B7C
:205EC000807C7F8283878A8C8B8A8A8B8B8A898A8B90959590898989898A8B8D8A8785879B
:205EE0008A8B8B888583868786837D7C7B7D7D7C7C7C7C7E8185868685838382858A8D8D38
:205F0000867F736E6D7684898C8787857F786E69635D5B5A5C5B55524C4B4B4E52545A5E5D
:205F2000666C7074767979797B7F83848482807E7A78767678797B797A7B7C7F8084878CFB
:205F40008F9296989C9C9E9D9A98969697989691898586888786888B8C8C8B8B8A87858546
:205F60008A8E8F8E8E8C898686898C8E8C8B8A8A8B8A8986868687878887837F7B7A78793A
:205F80007A7D7E7E8084878889878683858B8C8D8B877F756D717F898A898A898379746EC9
:205FA000655D5A5A59585656524B4A4B4F5153575B656C7377747675797C7F848485828218
:205FC000807C7C797978787B7D7F7E7E7F8184868B8F919296999A9B9A9C99969493929299
:205FE000948E847D7E878A8B89888683868B8C8887898A8B8F94918983848A8C8D8E8F8B71
:020000040800F2
:20600000888686898A89878685888B8B87817E7B7E818483818485868584858786848688DC
:206020008B88827B75757981888D908F8A8177736F675F5C5D5A575555524A474748494BF4
:20604000535C63686E71727375787C7F848789888785807B78767778797B7E808080818225
:206060008485888B8F9196999C9E9D9B97969798948E8B8B8C8C8C8885828486858685875B
:2060800087878A8C8D8A888A8B8B8B8D8E8D8C8B8A8785868789898A8987858485817D7EFA
:2060A0008283807F818282838686848485898D8E8A8683807E7B7C828B8F8F8E8F8E867C37
:2060C000726B6561605B585554534F4C4A4A48494E565D636A6E7272757776787B83838251
:2060E0008282817A7A7B7A78787C7E8182848583828487898A8E929696969C9E9E9B999893
:20610000969693918E8B8988898787878682818386858787868483858789888A8C8C8B8A61
:206120008C8C8B89898A8B8A8A89888681807F8282817F7E8181838384838383888F928E9C
:2061400087827F827F7D80868A8A909191887F78706A63625C58545454514D494745474D98
:2061600055595F656A6F71767676777A808385878886817F807D7B78797C7E7E8083838309
:206180008387888A8A8D939595959A9D9B948F90939492918F8E8A8989888583828081845B
:2061A000888685848485848686888889898C8D8B8A898A898D8D8E8C8C8C878786878382D7
:2061C000817F80808381817E7F82888D8B88817E7F828182888D8F90959591877E776E694E
:2061E00065625A5754504D49484646484E53585C61676B70747A7E7F81848888898A8986B7
:20620000827F7D7F7D7B7A7C7B7B7D80838484868A8D9397989B9C9B989998979691939436
:20622000928F8D8B86848282817F7E7E8180808183828184858989888987898789898887AF
:206240008484858889898683838283838180818382838486878788898986807F84878887A8
:206260008A8D8D8E8E8F8C868076716E6A645E5C5753504F4D4B4B4B4D50575A5D61666C0B
:206280006F75787C7D7F838587868582838481827F807E7E7E7D818084858688898D8F96BB
:2062A0009997999D9E9D9C999A98949091928F8E8B8A87848382827D7F818282828584833C
:2062C00082838584878585858484828584838081828081828281807D80807F7D7E85848972
:2062E0008C8E8C86817E83858888888C8C8E8E908A847F7A7975736E6A655F5956544E4B6F
:206300004C4D4C4F565A5C5F6568696F7678797E8383838684888883828485818185868610
:206320008484848689888A8C8E90929395989898999B9A9A99969494939194918E8C8C8B4B
:206340008A8B868684838183858182808181828282838084838282848381828082807D7CEE
:206360007D7C7B7D7E80808282847E7978797A7A7F828685848786847F7C79787572706F77
:206380006D6763605C5854504C4D4F5356575B5D61666B70727574797F8387898987898AC3
:2063A000888A8A8885858687898787868588888C8E90909095969A9A9D9C9C9F9D9E9C9DDF
:2063C0009B9999969694928F8E8E8B898786858283838383818180838382838283818281A9
:2063E00080807D7D7A7B797B7B7A7C7D7E7E817F7D7B77757577787D7D7E8082817D7D7B18
:206400007972706F706F6C6C686965625E5F5D585C595E6161626467646A6A6E717175767C
:206420007B7B7E808081828584888A888C8B8A8D8A8E8E8A8D919191969193959295989600
:206440009799979A9A9C99999B979794989593929192898D8E868787838083817E807F7F66
:206460007D7C7F7C7A7C7B787C7F7B817E7E7F7E7E7D7F7A827C777F7B7B787778787976A3
:206480007A797879727678706F6E6D68686C686A696668656464656663666A6B6B6E756F66
:2064A0007477727877767F7F7A848680898C81889086888D8B8E8F8F8F90918F9392909212
:2064C000919391919392908F938F8E938E8E958F8F9391918C918E8C908C8E898F8A8891CF
:2064E000838A887F83807D7C81787B80747C7A737A75757A75777B76777D74747A6D77774F
:206500006D7A767276786F77746D7B6D71786D72746E6D716A6F7165707068726C6C756C65
:206520007078717378787480797684767E7F82847E8B83868587888790868C8F8B8C928C2C
:206540008F918A908D908D908F8D9388928E8A918C8A8D948B8B948789958987958C859584
:206560008D85958F808F92808B888484848A7E83817B7D817F757F7C6C7A78707974737112
:206580007A73717E6F75737076737271747275767277776B79726C7E726F76796B7A7A6983
:2065A0007C766D787C71777E737D807B7E7C7D7C7E84787D848679838B718A847B86858235
:2065C000768A85798C8C7B7F917E789D7D72A17E799686748795758897768391877E8E940F
:2065E0006694986E9C8F7D82977C82A4748B927F858E867D907F839286788E8272947C74EA
:206600008E7A6D8A85668A8662947F68897D6F7D9064808C6089876D7D8B657795647E93E6
:206620006377936876966A6D936C718E73718A816B927E6F8F7E7A84896E8C866B948372C3
:206640008C816D9181698E84668A8464927E698B7C6C88826B88806B877F648E80678B7BA2
:2066600070828268838A6887836E857D7983807D7D8C7787897492797C8E807A898577902E
:2066800086788C89718E84798A7C8284897B8A7D7A926F8792778291788096737E95747FAF
:2066A0009376828E797E9275828C6D907D788E7F7586866B9874719F6982926F888B7288B5
:2066C000936D8B91669D866B9F7A739A727C956D8681777D86727B97549F72679E5A8F6FCD
:2066E00082777A7E6A9B4F937664975D8C72767A7B7D6C8E64897A6B946D847B7E7B808247
:206700007191738483788980818189778A827A8B7F798E84719D717E9371868A8079986E4F
:206720008494649B82759280798E8572957F7397777A90787E887E77877C7489797C827C36
:2067400079808076847F7C847B838180837F847C8E76838C6A947882837D886F936F868636
:20676000738B738D7282886D8F747F847A837786787E8275837B7E78827C77847C767D8267
:20678000708D717E886E8F6F8A7A8581709A6496767F93699E66967B779866A2688D857103
:2067A000956D9B60998068A45DA36D7F8F7097659E70888B6BA35E9E7D719E65986F88869F
:2067C0006A9F5D977A6D9C589F6A7D8B62A3549A786AA1589F6B8B7F6CA653A76D78A05904
:2067E000A2688F7E759762A7608C925DA76392856D966D906F8B8767A065908169A25D9873
:2068000078709B60976C897B729855A8617D9457A65B9378709957A561878C62A3688E77C7
:20682000897F6FA06299747F926799708C7784876AA35F8F89679A6C8F7681896C9C659046
:2068400089679E6591806D9B6588807A7F778B6791797393658A7A7488787B7C876F84847B
:20686000718B7B7A89807A888182818089788F79858B6F937A877D828774926B957970A3E4
:20688000628A827B827A8E68927673936D877A837D748E6F80836F8A78768975817F79814E
:2068A0007884798580748E727F8875877D7F7C7D84787E837B7F7C80817489757E8E6A8B0B
:2068C0007E7789718B78788D7184817A847A7E8478867D778F7482877386837882847A81DE
:2068E00083808081847E7F86807D898181887B8D7F848B7A907D8785848D7C8E827F918522
:206900007A8E857A97797D92758D7D7D8E7489817A887E7E847A82837C85768C7B72957350
:206920007B867F80728F79758C777B82827284816D8C797786718A707D8B669171788574B4
:20694000867283787C8078897388816F9271808A78867C8B79819174868980887D9283782A
:20696000997A7E98738594738C8182867E8B798B827E8D7A8A808189778B7F857C838D6DB3
:206980008A837D8384827F857F857E7F857B82827C847C807C7F7C7D817882787E7C788303
:2069A000747F817286777A85767B807B768675807E7686728878758E6D8582718A78827E42
:2069C0007B837E7D7F817C857D7D85837786867B80877F7A8E7B828683817E8A7F7F8E7F95
:2069E0007B947A7C907B84867B8A7D84857B897C7F857D7F807F7F7F817C837C818279817C
:206A00008379808973897D7C807E84758876818275817E7C7A857D758C717C8C698D7B74B9
:206A20008C757F817A837B7C88787B8A74818D6D8A857586827E8280868474907F798C834C
:206A40007A8D807E8F778E7C878B77957A7F917788848286877F7F91728B837A8F768980D0
:206A60007E89768F7A7B946A8A84738A7C7988747D896A8E74798C68887C7489727E847057
:206A8000817F727F807382777D7E757F7B7B7A7D768374798372807D757E7C777E78807B8E
:206AA0007B7D7C837186816E95707B95688D85738B82778A7F8182818C768A8180858187CC
:206AC00082818A81838A788E827D86877A878D70918275927C7D8E7A858778897F7E867769
:206AE000887E7E847C82817C7C8677827985797A8C6D857F7D79827C7C857684777B8377CF
:206B00007983787D7E787D817A768779728C79728D708380708A777E8079837B7E88787CD7
:206B20008B777E857D827F857F837E8B7F7E8D70937B84887D8C7E897F877F86828482810A
:206B40008A7E7F8B8575957C7E8A7F857E8E78878975907D7F897A8383847D857F7F8972EF
:206B6000848870897C7D83798778807E7B7A857A748F707C8B6B7F8D6A80807D75788E6770
:206B8000847F7385767980767C7C7782787B7C7C74867C6C9274728E6E84846B996F759D56
:206BA00063868E6D898377828B7383867A867A8A7888867A8F7A86857A8A7C828A788F7CBE
:206BC0007D8E8077878D6C8F8677887F837E83837F8181807E857D82857A818384708F838D
:206BE00062A179689D7671917C728C816C907A748E71818871818D6A86876D8A7B7D8079D1
:206C0000867A7392737493737B8580728A8464997772977081887C8382788E7E6E99787593
:206C2000937E749181728F83768983779080788F817B897A84847A8D7986827E8B78858212
:206C40007A7F87797E93688C88649875718F7681817C846E8E756D94648B7D757E7E885D91
:206C6000A37061A5687A897A787A8D6C7A965F8C8B619575847B7693628E886A8386787659
:206C800090727D936686935D908D648F85797F8B846B9D8065A674759A787D8A857A8786C9
:206CA0008075987972A264908C6D8E83817C8C7D808A7C8287798E83709B718889778C719C
:206CC00095777B93718883748D777991727C877D728F7D679775718D7B74877E77818177D7
:206CE00076916F7E8E6F82837975897F718D7C758D76798E7082857187827582817A867DC9
:206D00007C877980847A7D8583738984728685797D8D767A8F7C7689886E8C84738982787E
:206D20008686758B7B8186798678877F7E837F807A8A7F77898179867E8083778B7A759142
:206D4000737B897E777E8E668A89648F7C75867B7D7E798C7079956587876D878274867F7D
:206D60007488797B808376838075887389797E877588788286798383798E787F8C728C7D2F
:206D8000827E8289758A82847D7F8D78848C7386897886837F83857E8288807A8A84738BBA
:206DA000857B7F88807989827C8286778685758A8278857C827E778C76808675817F8474DC
:206DC0007D88767C8378808174857D7980827C79827D7E7E7D7F7F7A847A7A85787F7D81F8
:206DE0007B78847F757F84787E7F807C7C8081797F8476867F7C827D837F7D7F867D7C86C2
:206E0000807D8283807C84827B857E7E857F7C867F8181798A7A7E847C8281817B83807F6F
:206E20007D8186778288787F847E817B8682768A7F7C857D81817F807C857D7E867A847F53
:206E40007F827D85827B83847B83838080828181827F8281837D84837B83837D80847D821A
:206E60008082817D857E817F82817C847F7E838081817F817F837D80847B83807D837F7C0E
:206E800082837C80827F807F7F817D7F817F7D807D807F7A827D7D7E7D807B7D7E7D7D7E1D
:206EA0007E7D7C7F7C7C83787E827A7E7E7E7E7D7F7D7E7F7E7E7F7E7E807D7F807C827E12
:206EC0007E807F7F7E817E7E837E7C837E7E817F807E817E80817E82807F81817F818180BF
:206EE000818080828080837F8281818180847F81827F82827F81818081808280808080817A
:206F00008081807F81807F807E80807E807F7F7F7F7F7F7E7F807D7E7F7E7F7D7E807C7E92
:206F2000807D7E7F7E7E7F7D7E7F7F7E7E807D7F807F7F7E807F7F7E7F807E7F817E7F7F7A
:206F40007E807F7F7E817E7D837D7E817E7F807F817E7F837D80817E81807F81807F818141
:206F60007F808180808180808080827F80827F808081817E82827E82817F818080807F800A
:206F8000807F81807F80807F807F7F817F80807E817E80817D81807E80827F7E827F7F80FC
:206FA0007F80808080807F80807F8080807F81807F817F808081808081817F7F837F8082D0
:206FC0007F8181808081808080818080817E818080817F80817F8080807F80807E817F7EB3
:206FE000817F7E807F7E7F807E7F807D7F7F7D7F7E7E7F7D7F7E7D7F7E7C7F7E7C7F7D7DC6
:207000007E7D7E7D7D7D7E7E7E7D7E7E7E7E7E7F7E7E807E7D807E7D817D7F807D817F7EAA
:20702000807E80807E807F7F807F7F80807E81807F817F8081808081808081808182808054
:20704000838081828182808381808281818182818181818281808181808180808180808110
:20706000807F817F80817F80807F817F7F807F807F7F807F7F807F7F7F7F7F7F7F807F7F21
:207080007F7F7F7F7F7F7F7F7F7E7F7F7F7F7E7F7F7F7F7F7F7F7F7F7F7F7F7F7F7F7F7F12
:2070A0007F7F7F7F7F7F7F7F7F7F7F7F807F7F807F7F7F7F7F7F7F7F7F7F7F7F7F7F7F7FEE
:2070C0007F7F7F7F7F7F7F7F7F7F7F7F7F7F7F7E7F7F7E7F7F7E7F7E7E7F7E7E7F7F7E7FD8
:2070E0007F7E7F7F7E7F7F7F7F7F7F7F7F7F80807F80807F808080808080808080818080A1
:20710000818080808180808180808180818080808080808080808180808180808180818165
:20712000808181808181818181818181818181818181818181818181818181818181818131
:20714000818180818080808080808080807F807F7F7F7F7F7F7F7F7F7E7F7E7E7E7E7E7E45
:207160007E7E7E7E7E7E7E7E7E7E7E7E7E7E7E7E7E7E7E7E7E7E7E7D7E7E7E7E7E7E7E7D51
:207180007E7E7E7E7F7E7E7F7E7E7E7F7F7F7F7F7F7F7F7F7F7F7F7F7F807F80807E808014
:2071A0007F7F80807F8080808081817F8181808181818181818182818182818182818181BB
:2071C0008181818181808180808180808080808080808080808080807F80807F817F7F80AB
:2071E000807F7F807F7E807F7E7F807F7E807F7F807F7F7F807F80807F8080807F7F807FA5
:207200007F80817F7F807E7F807F7F817F7E807E7F7F7E80807E7D7F7E7E807E7E7F7E7E90
:207220007E7E7E7E7E7F7E7E7E7E7E7E7E7E7E7E7E7E7E7E7F7F7F7E7F7F7F7F80807E8080
:20724000817F817F80817F80808181817F7F807F7F7D7E817E7E7F7C7E807D7E7D7F7E7F4A
:207260007F7C7C787E82807D7B83817D7C8184807F7A7A83807D79767C83857983887D813D
:20728000817F7F7F80888074808A807B80808B847D81808486797E8B71778B84747B8379F4
:2072A0007F7879817C757187816778848077777F727E867B7C7E8381808282808C8E7F7522
:2072C000859484828B7A7E8F82807F82858182797B82827E7D7D7F7E817D727F888278789C
:2072E00080847F7A8282758185798184827F827F7D8586857F81828A827B8A82818A827B68
:20730000878679868679877F7A8C807A88837C7F8284837B7986877D7A7F838280757F8756
:207320007E8078778A847B7E7C877D768784798282798288837A7C7C838C7D727F8F82785D
:2073400081827F837F7D7F7F8B81747B8989757185897C7C798085757082867E8079767A63
:207360007F8A7F657A95816F71848C76707F81858276767C8D8971788B897B7980838C862F
:20738000717B8F867A7C7E82837B7E82787B7D79807D778082757681817B777D7F797E8245
:2073A000787B80747E80738181777E7A7D85787A8182837A80877A7D83818485867D788307
:2073C00087867C7B918C7A7A7F8E86728187838A7E767E7D7F827D7B7D7E78716E798177D3
:2073E000767473847F737C777D93847585908C7E7C8D928A88817F8E8E84838184857B7753
:207400007D838379757C7C7C7A76787E817B737B837A737A818884777982837F7A839089B6
:2074200083817C89928481898D8C817C82838484807F82837B71727C7E78797D767579755D
:20744000757A82867D788083807E838988858A898281898983868C8B857F828280838481CE
:207460007F7E7E7A787E827C787C7E7B797B7D7E7D7E7D7E8384817D818A877E7E8789832B
:2074800082888B888380818588847F8184837C787D85847C7D817F7A78797E81827F7B7EDC
:2074A000827F7B7B8387827F80817F8081838382857F7B85837E7D8085837E818680797CBD
:2074C00084847F8181807D7F83817F7F817F7F84837D7D827F817F7A817F7B7C797D827FBC
:2074E0007A7A7D817E787C837F7C7C7D7D7D8386827B7B7E8180818582807F7E7C808980AD
:207500007B7E8083817B787F80807F80847A7780827A7B818382757881827D7D84817A78AA
:2075200083857A7D84827B7A797C86827B82857E7779807E7E88837A7C7E7C7C7879848973
:20754000847A7A797B808185807C807B79818481818183807A7D8180838582817A787C7E4F
:2075600082858379797F7F7D7D84827C7D7E7F7C7E7E7C807F8082807B777B828785808328
:20758000807A7C7D8189867E7E81827C7A83857F7F84837D797A818181827E7C7A7D8081FF
:2075A00083817F7F7D8083807F83817F828181807E7E7E808084867D7D817F7F8185837FBE
:2075C0007D7E81807F807F82817F817F7E7E818683807D81817C7D7F83818185807B7D7CB4
:2075E0007E858584807C807E7E8483818382807E7C8082818281817F797C84837E7C7F8283
:207600007E7D8182817C7F8281807D8282807F80857F7E8384808083807E82838284817E59
:207620007E7C7E838582807E7C7976808584837E7D7A797C7C8184817E7D7D7C7A7D818477
:2076400084817D797D7E818A837E7E7E7C777D8084847A7C7E7C7A788187827A7B7D7B7B60
:2076600081857F7E807E7E7A7F8587847E81828182818282817F8383818482807D7D8485E9
:207680008182858280817F7E81838284838081817D7F83838382807F80818083817D8184C6
:2076A000807C7D7E808382817F797B7C7F8282807B7A7C7B7E8282807E7D7D7F7D7D8181FA
:2076C00081807D7E7E7F7F7F7E7E807D7C7C7E807F7D7B7C797C807E7E7B787A7D7F7E7FFA
:2076E0007D7A7A7B7E817E7D7E7D807F7C7E8082817E7E80828181828181817F80838382A1
:207700008283818080818482818283817F82848484818082828182848584827F7F82848627
:20772000848282808082828283848182817F7E7F8182827E817F7A7C80817E7F7F7F7E7D44
:207740007F7C7D7F807E7D7E7C7D7F81807F7E7D7C7D7F82807E7E7B7C7F807E7C7C7D7F68
:207760007D7B7B7D7D7C7C7D7E7B797B7C7D7D7C7C7B7B7A7A7C7D7D7E7D7B7B7C7F7F8081
:207780007F7E7F7F7F80818282817F808282828181828585838081828383838384828182BB
:2077A00083848484828386858483838586868685848486868685868683848384848284843D
:2077C00082828282807E80807F7F7F7F7D7B7B7D7F7D7B7D7D7B7B7B7B7B7B7C7C7B787900
:2077E0007B7B7A7B7B7B7B79797A7A7C7C7A7B79777B7C7B7A7A7A7B7A7A7C7C7B7B7C7B36
:207800007B7D7D7D7F7E7E7F7D7D7E81828181808080818484838283838182838485858453
:207820008282838486858484828485868685848484848586858483828384838381818281D3
:20784000818080807F807F7E7C7D7E7F7E7C7C7D7D7B7C7D7E7D7C7D7C7A7C7D7D7D7E7E78
:207860007D7F7D7D7E7F80807E7E7F7F807F808181807E7F808081807F7F7E7E7E7F7F7E28
:207880007D7D7C7D7E7C7C7D7C7B7C7C7B7B7B7B7D7D7E7D7D7D7D7E7E7F80807F7F81823F
:2078A00083818180818383838181808081828483817E7E7F8182828281807E7F81828383A3
:2078C000828181828283828384848584848584858687868687868786868686868686858514
:2078E0008584838383838081817F7D7D7E7E7D79787A7B7B777678797A7876767777787804
:20790000787978777675777878777574727273747371706E6E6E6F706F6E6B6C6E70737414
:2079200072717275797D7F81818285898D90939696979A9D9FA0A2A4A4A4A3A4A6A7A6A322
:20794000A09F9E9F9F9C9B9794908F929391867F7E818B89827A74787B7C7C7B7974706E1C
:20796000717476756D69666567666766625B5555575A5A575352514F504F5257595955554A
:20798000585E63686B6D6D6D727980878788888B93989C9EA0A3A4A4A4A6ABB0B0ADAAA95B
:2079A000ACADAFAEABA9A7A6A5A4A3A19E9B9A999794918E8E8D8B8986838281837F7B7CF9
:2079C00080837B6F6C7482867D6E6B71777B797A7A756F6A6E777E7D7167666A6F6E6A6827
:2079E00067635C585B60615B55525355555251565A5B5956595E64696A6C6F7275787E8566
:207A00008B8E8E8F94999DA1A4A7AAAAA9A9ABAEB1B2B1AEA9A8A9ABACA8A29E9E9E9D9A0D
:207A200095908D8D8D8D8A84807D7B7D7E7F7C777674757572798083796663708791887670
:207A40006B6F7882888B877E757076828A8980756F6E70727576736B605A595E66686157D6
:207A6000504F53575A5A5C5B5753555D686E6D6A6A6D73797F858A8B8B8A90979DA1A1A2B0
:207A8000A2A3A5A7ACAEAEA9A5A5A9ACAAA6A3A19F9D9B9B9C9B96908A898C8D8B8883815F
:207AA0007F7D7D7D7D7D7B7977757676767A7F817B6E696E7F8F8D7F6D6974828D8E877D55
:207AC000757277838B8E84776F6D747B7C796F68646160616365635C544F51565A5C5A575C
:207AE0005553565C63696A68676C72797D7F83888D90909499A0A4A4A2A3A6AAADAEACACBF
:207B0000AAA8A6A7AAABA7A19C9B9A9A9A9895908B8785878786847E7A78777B797A797476
:207B2000737175787876767B7D786D6C76858E87796E707D888F8E877D76777E8B928E83A1
:207B40007673757B817F7A71696463666A6A6660575354575C5D5A57535355585E63666791
:207B60006565686F787E82838384888E969DA0A09E9EA1A6AAADAEACAAA7A6A7A9AAA9A665
:207B8000A19C9A9A99989593908D8B8786858685827E7A7C7E7E7C787878797C7B7D797525
:207BA0007A82877E706C778A948C796D717E8B8F8D847A74757E898E897B706D727B7E7A09
:207BC00071676161646463625E58504E50575B59534D4D52585C5F60616364686E757C80AE
:207BE0008183878B91969CA0A3A4A5A7AAADB0B3B3B1AEACADAFB0AFABA6A29F9E9F9D9C3E
:207C000097918C898A8C8C89837D7A7A7F82817C7573767B7D7D7A797976797F8583766D72
:207C2000707D8D9080706A73838A8981787373747C83857E716A6A7177777169646362607B
:207C4000606263605A5351565D615E5956565B61666A6B6C6C6E73798086888A8B8D9296A9
:207C60009CA1A3A6A5A4A5A8ADB0AFACAAA8A8A9A9A9A7A4A09D9A99999897928C89878802
:207C8000898886817C7B7D7D7F7E7C787476797C7E7B7977747A81847F716D74828D887A4D
:207CA0006F70788185837F7A7672747A83867E70696C7377756F6966646360606364625AA2
:207CC0005351565D615E595655596065686B6B696A6E777F858584858991969A9C9EA1A21D
:207CE000A2A2A5AAADACAAA7A6A6A7A8A8A6A29E9B9B9A9A9895918D8B898C8C88857F7E33
:207D00008182807F7C7C7A7A7A7A7C7D7C7A7A767A828584736B727E8E8D7F716B747F86E0
:207D200087817B7570727981858071696A7176746F696764615F5D6165625B5453575C5ED0
:207D40005C5A5A5B5E5E61666B6F6F707277808587888A8F94989B9DA1A4A5A4A5A8ADAFCB
:207D6000ADAAA7A8A9ABABA8A6A09D9D9EA09C97928E8E8D8C8C8C8A847F7C7D8285837D59
:207D8000787778797C7C7D7C7A78777476818986756769778D928470656C7C8688817A7199
:207DA0006C6E7683867F6F63676F77756D6963615F5E5E6164635B5552545A5F615F5C59F6
:207DC000595C636C7273706E707882898E8F8D8C8F96A0A6A9A6A3A2A4ABB0B2B1ADABA8D2
:207DE000A8AAACACA9A5A19C9C9C9C9A9693918E8A8787878886817D7B7C7F7E7C7B797990
:207E00007876787A7C7B7A76727980847C6D6C72828B8173696D7880847E77716D6E737C62
:207E2000827F716462697478736A615D5D60636565625C5655565A606565605A575C6670AA
:207E40007677726F6F76818B94938D898993A0A9AAA49F9FA3A9ACADADACA9A6A2A3A6A954
:207E6000A8A39E9A9698989898948F8A8686888B8B857E7C7C8083808079797A7A7B797BDF
:207E80007C7C7C7C7872788289826E686E819188766869778287837A736F6E737C838378A4
:207EA0006A65687278757068625F5E6064676861595352575F66676158565A636D7275722E
:207EC0006F70737C858D918E8D8C8F98A1A7A7A3A2A3A5A8AAACAEADA9A2A1A4A9A9A49E6A
:207EE00099999A98959391908D8884848787837E79797D807F7B757376797B7A7878777716
:207F00007A77757A82887C6A687488928775696D7C868A877E767373798288887C716C6E0A
:207F2000767C7D776E656264676A6B69635C57565A6066666159565A626A70716F6C6B705E
:207F400077838C8C8883858D99A1A19D9A9CA1A5A7A8A7A8A8A4A09FA4A8A59F99979798E6
:207F6000979696938D8582868C8E887E78777C8285847D7671747B81827C7875767B7977DB
:207F80007A83867C6B6570828D87766968727F86878076706E747F898A81746C70788081A3
:207FA0007C756E6B6A6A6D71736D635B5B60676866625F5F5D5E636B73736D6768707D8679
:207FC00088848281858D959C9E9C98979BA1A7A9A7A4A19FA0A3A5A4A09D9B9A9794919382
:207FE00094938F868282848889867F7877797F81807D78767474777A7D7B79726F70757ACA
:020000040800F2
:208000007B7E7A726A67717E8783766B69727D878B877D7572778492978D7C71747F8C8FCF
:20802000887E74707174787B7A746B6361656B70716B6661606369727878726B69707C8836
:208040008B88827F818991989B9A969290959CA1A19D999695969899999794928F8C8B8CC9
:208060008E8F8D8883808183848482807C79787B7E7F7D79777575777A7C7B787572737750
:208080007B7B78757475777A7C7D7C79797A7E8183817E7E7F82848684828283848585841B
:2080A0008383828280808282827F7D7C7B7B7C7C7C7976747375777775726F6F7072737289
:2080C000727171707173757778777777797B7D7F80818181818386888988878687898C8CE4
:2080E0008B8A8989898A8B8A898786878787858484848382818181827F7D7D7E81817F7CF7
:208100007A7C7F81817F7D7C7D80828383807F7E8084858583828181838586868482838339
:2081200085858584838383838382838484838180808182817F7E7E7E7E7E7D7C7C7B7B7A2E
:208140007A79797A7A797777787A7B797777797B7C7A79797B7C7C7B7B7B7C7C7C7D7D7CDA
:208160007B7B7D7C7B7B7B7C7D7C7C77767B7F817A7372757F827F7A77787B7F8285827F87
:208180007E7D80858989858180818486858483817F7D7D80807F7C7A7A797979797A7B7BF3
:2081A0007A7877797C7F807F7E7F808182878B8C8987878A8E9192908D8C8D8F91918E8DF1
:2081C0008D8D8C8B8A89898989878684838383858684817F80828382828181807F7F80810D
:2081E0008382807E7C7D7E7F7F7D7C7A7A7877797A7A787473747577767675757575767851
:20820000797A7A7A7A7B7D7E7F7F7F8081828382828384858583838484848483838383824B
:208220008180818182817F7F7E7F7F7F7F80807E7C7C7D7F7F7E7D7C7B7B7B7C7D7C7B797E
:208240007778797A7A78767577787877767778787777797A7B7B7A7C7D7D7D7D7F808181E2
:2082600080808182828282828281807F808081807F7E7E7E7E7E7E7F7F7E7E7E7E80818204
:20828000828282828385878888878687898B8C8C8B8A898A8B8C8D8B8A89888989888787DD
:2082A0008684848383838282807F7E7E7E7D7C7C7B7B7A7979797979797877777879797926
:2082C0007878797A7A7B7B7B7C7C7E7F7F7F7F8080828384848383838486868585858484A1
:2082E0008585858584838282828282817F7F7F7F7F7E7D7D7D7D7D7D7D7D7D7D7E7F7F7F82
:20830000807F808082838383828383848586868585858585868686858483838383838281F0
:208320008180807F7E7E7E7E7D7C7B7A7A7A7A7A79787777777778787776767677777778FC
:208340007878787879797A7B7C7C7C7C7C7D7E7E7F7F807F7F7F808181818181808081816F
:208360008181818180808080818181808080808181818282818182828383838484838383CF
:20838000848485858484838384848484838382828181828281807F7F7F7F7F7F7F7E7D7DAB
:2083A0007D7D7E7E7D7C7C7B7C7C7C7C7C7C7B7B7B7B7C7C7C7C7B7B7B7C7C7C7C7D7C7C3D
:2083C0007C7D7D7E7E7E7E7E7E7F7F7F7F7F7F7F7F7F7F7F7E7E7E7E7E7E7D7D7D7D7D7DDC
:2083E0007D7D7D7D7D7D7D7E7E7E7F7F7F808181828383848485858687878787888889893B
:208400008989898888888888888786868584848383828281807F7F7F7E7D7D7C7C7B7B7A09
:208420007A7A7A7A7979797979797A7A79797A7A7A7B7B7C7C7C7C7C7D7E7E7E7E7E7F7FD7
:208440008080808080808181818181818181818181818080808080807F7F7F807F7F7F7F17
:208460007F7F7F7F7F7F7F7F7F8080808080818182828282838384848484848484858585CA
:2084800085858484848484848382828282818180807F7F7E7E7E7D7D7C7C7C7B7B7B7B7AE1
:2084A0007A7A7A7A7A7A7A7A7A7A7A7B7B7B7B7B7C7C7C7C7D7D7D7E7E7E7F7F7F80808039
:2084C000818181818282828282838383838383838383838383838282828282828282828253
:2084E000818181818181818181818181818181818181818181818181818181818080808060
:2085000080807F7F7F7F7F7F7F7E7E7E7E7E7E7D7D7D7C7C7C7C7C7C7C7C7C7C7C7C7C7CAF
:208520007C7C7C7C7C7C7C7D7D7D7D7D7E7E7E7E7F7F7F7F7F7F7F80808080808080818173
:208540008181818181818181818181818181818181828282828181818182828282818181F3
:2085600081828282828181818182828282818181818181818181818080808080807F7F7FDF
:208580007F7F7E7E7E7E7D7D7D7D7D7C7C7C7C7C7C7C7C7C7C7C7C7C7C7C7C7C7C7D7D7D45
:2085A0007D7D7E7E7E7F7F7F7F7F80808080818181818181828282828282828282828281AF
:2085C000818181818181818080808080808080807F7F7F7F7F7F7F8080808080808080809B
:2085E00080808080808081818181818181818181818181818181808080808080807F7F7F6E
:208600007F7F7F7E7E7E7E7E7D7D7D7D7D7D7D7C7C7C7C7C7C7C7C7C7C7C7C7C7C7D7D7DBD
:208620007D7E7E7E7E7F7F7F7F808080808181818182828282828282828383828282828225
:20864000828282828281818181818180808080808080808080808080807F8080808080800B
:20866000808080808080808080808080808080808080808080808080808080807F7F7F7FFE
:208680007F7F7F7F7F7F7E7E7E7E7E7E7E7E7E7D7D7D7D7D7D7D7D7D7D7D7D7D7D7D7D7D25
:2086A0007D7D7D7E7E7E7E7E7E7F7F7F7F80808080808181818181818282828282828282BD
:2086C0008282828282828181818181818181818180808080808080808080807F7F7F7F7F89
:2086E0007F7F7F7F7F7F7F7F7F7F7F7F7F7F7F7F7E7E7E7E7E7E7E7E7E7E7E7E7F7F7F7FA6
:208700007F7F7F7F7F7F7F7F7F7F7F7F808080808080808080808080808080808080808065
:20872000808080808080808080808080808080808080808080808080808080808080808039
:208740008080808080808080808080808080807F7F7F7F7F7F7F7F7F7F7F7F7F7F7F7F7F2A
:208760007F7F7F7F7F7F7F7F7F7F7F7F7F7F7F7F7F7F7E7E7E7E7F7E7E7E7E7E7E7E7E7F25
:208780007F7F7F7F7F7F7F7F7F7F7F7F7F7F808080808080808080808181818181818181DF
:2087A0008181818181818181818181818181818181818080808080808080807F8080807FA9
:2087C0007F7F7F7F7F7F7F7F7F7F7F7F7F7F7F7F7F7F7E7F7F7F7F7F7F7F7F7F7F7F7F7FBA
:2087E0008080807F7F8080808080808080808080808080808080807F7F7F7F7F7F7F7F7F84
:208800007E7F7F7F7F7F7F807F7F7E7E7E7F7F7F7F7F7F7F7F7F807F7F7F7E7E7E80818178
:208820008180807F7E7F808181807F7F7F808080807F7F7F80808080807F8080808181813D
:2088400081818080808080808080807F7F7F7F7F7F7F7F7F7F7F7F7F7F7F7F7F7F7F7F7F2B
:20886000807F7F7F8080807F8081807F7E7E7F8081807F7F7E7D7D7E7F808081807F7D7C14
:208880007C7D80807F7F7F7F7F80818181818181807C7A84918975696F848E8B8786827AD7
:2088A0007C858C89817F8387847D7573757A7D7F7D78767271787E807C7B7F80807E7E7F0F
:2088C0008182818181817F80838487898885838385898B8F95959288828283888A8F9090B4
:2088E0008C8682807F7A76727274726B645E5C5B5C60626363625C606C78756761667986BF
:208900008886898A8380808787827F7F78757C848272697086969593949692939BA6ADAB3F
:20892000A8A6A4A09B97918C8C90938F877E7978787A7E84898885868689868385899090CC
:208940008C878483817D79787A7B797673716F6C696A707575716F71737575787C7E7D7D24
:208960007C7A79797B7C7C7A7876747171737473716D6B6D737778797A7C7E8081818382F8
:208980008080828485857F7A7A79787576757576767673737374787A7B7C7D7C7D7F808081
:2089A000808283858686868583807F8284827F7F807D7B7D7F7C7A79797A7C7D7E7F7F7FC4
:2089C0008387888686868686868687888888878582818486888987858487898C8C8C8D8DB4
:2089E0008C8C9094938F8A888A8E91928E89898D8F8F8B8686878A898A8B8B8A8884838C0B
:208A0000989A8C7B787C838483868989838182817F7973727475736F675E5B5D5E5C5A5B6C
:208A20005E5F605F6063666A6F75797C7B77787A7E7D7E8181827F7F7F7F7C797D838A8C66
:208A40008C8987898B8F93989A9A9A9B9B999895929192918F8B867F7C7F8183817F828379
:208A600083828283828183878C8D8A8785848486878885848385817B78797B797C7F8080A6
:208A80007E7B797E7771757D7D6E69676F797A79767872717B837E6C6465717A7C7B797920
:208AA0007473777D7C726F7074726F6F6B6763656A6A6761626466696C706F6F70757D81E2
:208AC000817F7F808284868480808283818184868686888C8F8E8D92989997989B9B989755
:208AE0009CA2A39D94909191908F8F8E8E8E8E8C8A87898C8D8F8E8D8C8D8C8B89858282A1
:208B0000888B8A86828384817E7E80807F7D7E807F7C7E858780818C948B7B71717D868819
:208B2000868B897F7C7C7F7A78726C6C6C6D655E544E545A5D5A5C5D5A5A60686E737272CC
:208B4000788287878481808487828282827E7B7A787C7F7F7D7F82888D8C8D8E9497999B77
:208B60009DA09D9D9A9C9E9B979392908F8D89837F7F8183847F7B7C8085868584848A8D70
:208B80008B8685858588898986858886837E7D7D7C7B7676787977787B74737B8C918372D5
:208BA000656C777E7E838B87817C8180797066666669655E564A44464F515154565A5C60BC
:208BC0006369707070737C8486868385858482818484817D7E807E7B797E858C8E8F92949E
:208BE0009495989DA5A9A9A7A5A4A4A39F9A9796938F8D8B877E797A8086847B7579848A50
:208C000088858485888C8C8A8B8B878487888481807F7F807E79777876757577787A807C36
:208C2000767D919C91806B6573858E8D938D87888A867A77706C69666665645547464E5492
:208C400052565A616567666C777B7B7D83868B8B8784868783838383817F7D7B7B79797A07
:208C60007F858990989A9693989DA2A4A5A6A8AAA5A0A09F9B96918C878685827F82868473
:208C8000817E7C7C7F84888C8B8685898F8D89898C8B898989867F7C7D80807A76767B7B6D
:208CA00075706F74767A7C75788898907B675A657A8A8C9292857F80847D78706966686A80
:208CC0006563594E484E5655585A6164686A6B727679787D848A8A8581818384817E7E80B7
:208CE0007F7D7A7B7B7C7B7B81878E939597989A9C9EA2A3A3A3A2A19E9C9896938E8B876C
:208D0000868484838485848182827F7D7F85898987878A8B8A8787878582818384848383C3
:208D2000817D79787B78787675727075767D7B747A8A9788736362727F8785898D888686B3
:208D400087817B7066686E726C655A5255585A57585A61686C70727576787B808587868559
:208D60008586868482807F7C7A7F8386817C7B7D83868B9093939295999E9F9B9796999CA6
:208D80009D9B948E8C8B8A8885817F8081828585827D7A7A7C838586878A8C8B8987848302
:208DA00083807E8083858586817E7A7A7A7A797574737677777A7B7876809093857261653C
:208DC0007682868992908D8D8C8D847B6C63676F726B63585455555250545A5D636B757994
:208DE0007875737A83888785838388888481807E7A787A7F827F7A7B8286868A9196989819
:208E0000999DA1A4A19D9C9C9E9E9E9A95918D8A878685827F7D808589857F7D7C7E83888C
:208E2000898A8C8D8C8C8A86848583817F81818386827F7B78767574727375777777777D41
:208E40007D787F8B968A776461738087878E93908E8A87817A6D6260686F6F685A53505140
:208E6000504E52565D62676F74736E6E71777E7F7F7F8084837F7C7A79777474787D7F7DAC
:208E80007C7F8385888D92969A9D9FA4A6A39D9B9C9D9D9B9A9997928B8989888481838697
:208EA0008B8E8A89898B898B90909191949695918A87898B8985838484868785817B797790
:208EC000767676797A7A7A7A82837D7F89948B7765606D79807F878E8C8B83807B776F6213
:208EE00060656B6A6359545455534F51555A5F656B6F71706E6D72787F808281828683812B
:208F00007F7F7D79787B8182807F818485878A8F9396999EA2A4A09B9C9B9C9B9B9B999987
:208F2000928D8B8A878583828385888687888885848282878A8E908E8C8989888887848438
:208F40008386878889817D79797873737375777B7C81807B7D84928A7B6A656D7881808B78
:208F60008E8C8A85847C796E6361626664615A55555655515153575C646B707473706F72C2
:208F8000777B7F82818284828281807D7B7E7F84868688898B8B8F93979A9DA0A3A5A7A483
:208FA0009F9D9D9D9C9A9A9998948E8886888785838184878887868482827F808385888833
:208FC0008A88888783818081818385858786837F7B797574737274787D7E827D787B828DA4
:208FE000847567656F788080898D8B8984837C776D6666676864625C5856555453535458CE
:209000005D64696F71716F6E7073787C818284858281807F7C7B7C7F84888A8B8B8A8B8DD3
:2090200091969A9FA2A6A7A7A7A4A19F9E9B9B9C9C9B958F8A8888868582818284868684A6
:209040008384858585858586898C8D8C8A87848484838788888884817C7A767374737574C9
:209060007A7E7E857E797E8A8F8272676A767F8180898E8C88848077716863646665615DDD
:209080005752515351505051565C64696C6E6D6B6B6F7174787B7D8082807E7E7B76767A82
:2090A0007F8588898A8B8C8C8D92979CA2A7AAABADABA9A6A3A19E9D9B999895928C8987C9
:2090C0008584808183858682828386858383818285898B8A8A87858381818284858583810B
:2090E0007D7A7674747476767A7D7E84817D7D858F887B6C69717B7F7C82888B8A868279D4
:20910000726C635F6263635F58525153514F4D4E50575F666B6D6E6B6D70727577797B80D3
:2091200084858383817E7D7C80858A8C8C8F90919194989BA1A4A9ACAEAFADABA6A3A09EA3
:209140009D9A989695938E8B8885817E7F83858382828687858481828486888889888886FD
:2091600084838384838381807D7A7977777775747578797F817C7C838D8E85786E6F77804F
:209180007E82888A8D8A867F797367605F6264645C54535555504F4C4E515961666D6D6DC7
:2091A0006C707476797A7B7E84848482807D7C7D7C7E81868688898A8B8E9293989CA0A421
:2091C000A6AAA8A7A4A19E9B9B999896949390908C8783808080848482828589888886867D
:2091E000888B8D8C8D8C8D8C8B888889888682817E7C7C7A797A79777678797A807C7A8032
:209200008990877D6F6E767E817D83858989858279776D6562646866635B58585A57504F2D
:209220004C4F545A60636969686A6F737577777A80858582817E7F7F80818286878A8B8C85
:209240008D8D8F9093969B9EA1A5A6A5A5A39E9D9D9B9A9898989595938F8B87848383825B
:209260008080818485858483848586878786878788888889898783817F7D7E7C7B7A7A7A93
:209280007A7A777879757479848882776F6F757D7E7E8082888A8A857F7B736C67686968A3
:2092A000645E5D5F5F5C5652515256585D63686A6A6C70757879787A7F848584818081833B
:2092C00083838485878A8C8B8B8D8E8F9193969A9D9FA1A1A19F9F9E9D9D9B9A9898979607
:2092E000948F8E8C8A888684838282838383848586868686888889888889898B8A88878580
:209300008381807F7F7D7B7A7A7A78797875757981837E746D6C6F7778797A7C82848581F1
:209320007D79726D67676665625E5D5E5F5C575350515254575A606265676A6D71737373B8
:20934000767A7C7E7E7E808385848384878A8D8D8D8E929496989A9D9EA1A1A0A0A0A1A042
:20936000A1A1A09F9D9C9A9895939291908F8E8C8A88868583838585878786858486878620
:2093800084838384858585858483817F7D7C7B7A7A7A7979797877787A7A76726D6C6E715C
:2093A000757676777A7D7E7D7A787673706E6E6E6E6C6B6A69676562605E5D5E5F6062640A
:2093C00065676A6C6F70717271727375797C7E808283838486888989898A8D909496989AB3
:2093E0009B9C9C9B9B9A9B9C9EA0A09F9F9F9C9A9795959492929192918F8C8A88878787B3
:2094000087878685868889888684828181818181817F7E7C7A79787675757575757676757E
:20942000757575747271707275777878797A7B7B7A78787878777677777876757372717071
:209440006F6C6B6B6B6B6A696868696A6A6A6A696868696A6B6E70737576787A7C7E7F8132
:20946000818284888B8E919394959594939394959697999A9C9C9C9B9A9998979595979875
:2094800099999795959493918F8D8C8C8C8D8F8F8D8B8987868584838281817F7D7D7B798B
:2094A00077767575757574737272737372706F6E7072727274747576747474767777777635
:2094C0007778777776767575747372727271706F6D6C6B6C6A696867676868686768696AB9
:2094E0006C6E70717375787A7C7E808285878A8D8F9293959596979798999A9B9C9EA0A036
:20950000A1A1A1A09F9E9E9E9F9F9E9E9D9D9B99979594929191908F8E8C8B898785838295
:20952000807E7E7C7B797877767574737371706F6E6F70706F6E6C6C6E70707172727270C4
:209540007072747676767575767777777675747372727272716F6E6E6D6C6B6B69696867E8
:209560006768686868696A6B6C6E707375787A7C7F828486888B8E9092949698999A9B9C0C
:209580009D9D9D9D9E9FA0A0A0A09F9E9E9D9C9C9B9B9A9A99989896959391908F8E8D8DA1
:2095A0008C8B8A888786848381807F7D7B7A7877757473727270706E6E6F6F6F6F6E6D6D8D
:2095C0006F70717273737372727375767575747475757474737271706F6E6E6F6E6D6C6B58
:2095E0006B6A6B6A69696969696A6A6B6D6E6F7071737477787A7C7E81838587888B8D8FC1
:2096000091929395969797989899999A9B9C9C9D9D9C9B9A9A99999897969594949392915D
:20962000908F8E8D8D8C8B8B8A89888786868684838382838282807F7F7E7D7B79787778A6
:2096400078787776777776757475767674727272737270706F6E6D6C6B6B6A6967666564FB
:20966000636362616161616163646567696B6D6E70727477797B7D80828486888A8C8E9095
:20968000919192939496989898989898979898989898989796969695949291908F8E8C8C38
:2096A0008B8B8B8B8B8A8B8A8A8B8A8A8988888787868787858685858382828080807D7BDC
:2096C00078787878797677777776747576777672727172716F6E6C6C6B6A69686867656469
:2096E0006463626160606161616263646566676A6C6E707275787B7D7F828486888B8D8E5E
:2097000090929395969798999A9B9B9B9B9C9C9C9B9B9B9B9B9A9A98989796959391908F57
:209720008E8C8B8A8A8A88888888888686868584838281828281828080807E7D7B7C7C7AAE
:209740007A7776747375757574737574757474767776737373737372717170706F6E6E6EA0
:209760006D6C6A6A68676666666666666768696A6A6B6D6F70717476797B7C7F81848688E9
:209780008A8C8E8F9091929495959798999999999A9A9A9A9A9A9999989897969594939219
:2097A000908F8D8C8C8B8B8A898888888787868584848382818180818180807F7F7E7D7C05
:2097C0007A7B7B7979767575747574757474757475747476767674737473737372727272E9
:2097E0007170706F6F6D6C6C6B69696969696968696A6A6A6B6C6D6F6F71737477797B7CA4
:209800007E80838586888A8C8D8E909193959697989898999A9A9B9B9B9A9A9998989797FC
:20982000969492918F8F8E8D8C8B8A89888887868584848382828281818080807F7F7E7E49
:209840007D7C7C7C7B7A7A7A79797877767575757575757675757575767676757474747428
:20986000747374737372717170706E6E6D6C6C6B6B6B6B6B6C6C6D6D6D6E6F707173747502
:2098800077787A7B7D7F8182848687898B8C8E8F9091929394959697989899999999999836
:2098A00097979695949393929191908F8D8C8B8A8988888786868585848484848382808049
:2098C00080807F7F7E7E7E7D7C7B7B7B7A7978787877767676767676767676757575757565
:2098E00075757474747374737373727271717170706F6F6F6E6E6E6F6F6F6F6F7070717246
:2099000072737475757677797A7B7C7D7F8082848587888A8B8C8D8E8F90919292939494CC
:20992000949595959594949493939393929190908F8F8E8E8D8C8B8B8A8A89898887878649
:2099400085848484838281818180807F7E7E7D7C7B7B7B7A7A797978787878777675757577
:20996000757574747373737373737372727272727272727272727272727272727272727296
:20998000727373737374747474757676777778797A7B7C7D7E8081828385868788898A8B4F
:2099A0008C8D8D8E8F9090909191919191929291919191919191919090908F8F8E8E8D8DAF
:2099C0008C8C8B8B8B8A8989888887868584848383828281807F7F7E7D7D7C7B7A7979782C
:2099E000777676757474737372727171717070707070707070707071727272737474747420
:209A000075757576767676777777777777777878787878787979797A7B7B7C7C7D7E7F7F32
:209A2000808282838485858687878889898A8B8B8C8C8C8D8D8D8E8E8E8E8F8F8F8F8F8FE6
:209A40008F8F8F8F8F8F8E8E8E8D8D8C8C8C8B8A8A89898887878786858484838281807FDE
:209A60007F7E7D7C7C7B7B7A79797877777676757574747373737373737373737373737317
:209A800074747475757576767677777777777778787878797979797A7A7A7A7A7B7B7B7BCD
:209AA0007C7C7C7D7D7E7E7F7F7F7F80808080818182828383848485858586868787878874
:209AC0008889898A8A8B8B8B8B8B8B8B8C8B8B8B8B8B8B8B8A8A8A8A8A8989888888888747
:209AE0008786868584848483828181807F7F7E7E7D7D7C7C7B7B7A7A7A79797978787878A0
:209B000077777777777777777878787878777777787878787878787979797A797A7A7A7A42
:209B20007B7B7B7B7C7C7C7D7D7D7D7D7E7E7E7F7F7F7F7F7F808080808181818181828257
:209B4000828282838383838383838383838484848484848484848484848484848484848495
:209B6000858585858585848484848484838383838383828282828180808080807F7F7F7F98
:209B80007F7F7F7F7E7E7E7E7E7E7E7E7E7D7D7D7D7D7D7D7D7D7D7D7D7D7D7D7D7D7D7D14
:209BA0007D7D7D7D7D7D7D7D7D7D7D7D7D7D7D7D7D7D7D7D7D7D7D7D7D7D7D7D7D7D7D7D05
:209BC0007D7D7D7E7E7E7D7D7D7D7D7E7D7E7E7E7E7E7E7E7E7E7E7E7E7E7E7E7F7F7F7FCA
:209BE0007F8080808080808080808081818181818182828182828181828282818282818247
:209C0000828282828282828283838282828282828282828282828182828182828181818108
:209C2000818181808080818182828181818180808080808181818180808080808080808013
:209C40008080807F7E7E7F7F7E7F7F7E7F7F7F7F7E7F7E7C7D7E7D7D7C7C7C7B7F82817E3A
:209C60007E7F7F7F817F7C7C7E7E7F80818180818181808080807F8080807F8080808080F3
:209C80008080807F7F7E7E7F7F7F7F7E7E7E7E7E7E7E7E7D7D7E7E7E7E7E7D7D7E7E7D7DFE
:209CA0007C7D7D7D7D7D7D7D7D7D7E7E7E7D7D7E7E7F7F7E7E7E7F8080807E7E80807F7FE2
:209CC00080808080807F808080818181818182818181818081828280808180808181818170
:209CE000807F7F80807E7E80807E7E807F7E7F807F7F7E7F817F7E8080807E80807E7E807F
:209D0000817F8082808082828080828382838483828383838382838282828082838281810A
:209D20008281808081807F80807F7E80817F7F7F7F7F7F7F7F7D7E7F7E7E7F7F7E7F808039
:209D40007E7F807F7F7F807F807F7F828180808080808082818081818180818180818280FE
:209D60007F8080807E80807D7D7F7F7E7E7E7F7E7D7E7E7E7D7D7E7E7D7D7D7D7E7D7E7D20
:209D80007C7E7E7D7D7E7C7D7E7D7D7D7F7D7D807D7D7F7F7E7E7F7F7F7F7F7F7F7F7E7E04
:209DA000817F7D807F7F7E7F7F7E807E7F7F7F7F7E7F7E7F7F7E7F7E7F7F7F7F7E7F7F7FC9
:209DC0007F7F7F7F7E7F7F7E7F7F7F7E7F807F807E808180807F808180808081818083818F
:209DE0007F818282818182828182828181838281828182818082818180818181808081803E
:209E000081807F80807F7F7F7F807E807F7E7F7F807F7F7F7F7F7F7F7F807F7F807F7F7F5A
:209E20007F7F7E7F807E7F7E7F7F7E807E7E7F7E7E7E7F7F7E7F7F7F7E7F807F7E7F7F7F4B
:209E40007F7F807F7E7F7F7F7F807F807F80807E8180808080818180808182808082818105
:209E60008181838182838182828282828282828282838281828282818282828181828180AA
:209E800080818180818180808180808080807F7F7F7F807F7F7F7E7F7E807F7E7F7F7E7DD3
:209EA0007E7F7E7E7E7E7E7E7E7E7D7E7F7D7E7F7E7E7E7F7F7E7E7F7F7E7F807F7F7F7FD6
:209EC000807F80808080808080808080808180808181818181818181818181818081818173
:209EE00080818181808181808180808080807F7F7F807F7F7F7F7F7E7E7E7E7E7E7D7E7D78
:209F00007E7E7D7D7D7E7D7C7D7D7D7C7D7D7C7D7C7C7D7C7D7C7C7D7D7D7E7D7D7E7E7EA2
:209F20007D7F7F7F7F7F7F7F807F807F808081808181808180828181828282818382838214
:209F40008283828282828382828383818382818282828182818181808180808080808080D3
:209F600080807F7F7F7F7E7F7E7E7E7D7E7D7E7E7D7D7D7E7D7E7D7E7D7E7D7E7E7E7E7E21
:209F80007F7F7F7F7F7F7F7F80807F818081808082818181828182828181818182828182B1
:209FA000818181818181818081808080807F7F7F7E7E7E7E7D7D7D7D7C7C7D7C7C7B7B7CD1
:209FC0007B7B7B7B7B7B7B7B7C7C7B7C7D7C7C7C7C7D7C7E7D7D7F7D7E7E7F807E80807FE8
:209FE00080818181828281828282828383838483838384848484838384838384838383830B
:020000040800F2
:20A0000083828382828282828281818281818181808180808080807F807E7F7F7E7E7E7E30
:20A020007D7E7E7D7D7D7E7C7C7D7C7C7C7C7C7C7C7C7C7C7C7B7C7C7C7D7C7C7D7C7D7D92
:20A040007D7D7D7D7E7D7E7F7E7F7F7F7F7F7F80808080818180818181818182828282810C
:20A0600082828282828381838283838282828282828283818282818282828182828381839E
:20A080008182828182808281818181807F817F7F7F7F7F7F7E7E7E7D7E7D7E7D7E7D7D7CD7
:20A0A0007D7D7C7E7C7D7D7C7D7D7D7D7C7D7E7C7E7D7D7D7E7D7E7D7D7F7D7F7E7F7F7EF6
:20A0C000807E7E7F7F7F7E7F7F7F7F7F817F7F807E807F807F80817F80818180808082808F
:20A0E00080818180808180827F81818081808180817F80807F81808080817F818180808155
